{
  "contractName": "LockContract",
  "abi": [
    {
      "inputs": [
        {
          "internalType": "bool",
          "name": "_setMultiStake",
          "type": "bool"
        },
        {
          "internalType": "uint256",
          "name": "_minimalStake",
          "type": "uint256"
        },
        {
          "internalType": "uint256",
          "name": "_superStakerFreshold",
          "type": "uint256"
        }
      ],
      "stateMutability": "nonpayable",
      "type": "constructor"
    },
    {
      "anonymous": false,
      "inputs": [
        {
          "indexed": false,
          "internalType": "address",
          "name": "staker",
          "type": "address"
        },
        {
          "indexed": false,
          "internalType": "uint256",
          "name": "amount",
          "type": "uint256"
        },
        {
          "indexed": false,
          "internalType": "uint256",
          "name": "numBlocks",
          "type": "uint256"
        }
      ],
      "name": "StakingLocked",
      "type": "event"
    },
    {
      "anonymous": false,
      "inputs": [
        {
          "indexed": true,
          "internalType": "address",
          "name": "to",
          "type": "address"
        },
        {
          "indexed": false,
          "internalType": "uint256",
          "name": "amount",
          "type": "uint256"
        }
      ],
      "name": "StakingRelease",
      "type": "event"
    },
    {
      "inputs": [
        {
          "internalType": "address",
          "name": "",
          "type": "address"
        }
      ],
      "name": "isSuperStaker",
      "outputs": [
        {
          "internalType": "bool",
          "name": "",
          "type": "bool"
        }
      ],
      "stateMutability": "view",
      "type": "function",
      "constant": true
    },
    {
      "inputs": [
        {
          "internalType": "address",
          "name": "",
          "type": "address"
        }
      ],
      "name": "lockTimes",
      "outputs": [
        {
          "internalType": "uint256",
          "name": "",
          "type": "uint256"
        }
      ],
      "stateMutability": "view",
      "type": "function",
      "constant": true
    },
    {
      "inputs": [],
      "name": "minimalStake",
      "outputs": [
        {
          "internalType": "uint256",
          "name": "",
          "type": "uint256"
        }
      ],
      "stateMutability": "view",
      "type": "function",
      "constant": true
    },
    {
      "inputs": [
        {
          "internalType": "address",
          "name": "",
          "type": "address"
        }
      ],
      "name": "nbBlocks",
      "outputs": [
        {
          "internalType": "uint256",
          "name": "",
          "type": "uint256"
        }
      ],
      "stateMutability": "view",
      "type": "function",
      "constant": true
    },
    {
      "inputs": [
        {
          "internalType": "address",
          "name": "",
          "type": "address"
        }
      ],
      "name": "recordingBlocks",
      "outputs": [
        {
          "internalType": "uint256",
          "name": "",
          "type": "uint256"
        }
      ],
      "stateMutability": "view",
      "type": "function",
      "constant": true
    },
    {
      "inputs": [
        {
          "internalType": "uint256",
          "name": "_nbBlocks",
          "type": "uint256"
        }
      ],
      "name": "stake",
      "outputs": [],
      "stateMutability": "payable",
      "type": "function",
      "payable": true
    },
    {
      "inputs": [
        {
          "internalType": "bool",
          "name": "_multiStakeOption",
          "type": "bool"
        }
      ],
      "name": "setMultiStaking",
      "outputs": [],
      "stateMutability": "nonpayable",
      "type": "function"
    },
    {
      "inputs": [
        {
          "internalType": "address payable",
          "name": "_staker",
          "type": "address"
        }
      ],
      "name": "refundEther",
      "outputs": [
        {
          "internalType": "bool",
          "name": "_isSuccess",
          "type": "bool"
        }
      ],
      "stateMutability": "nonpayable",
      "type": "function"
    }
  ],
  "bytecode": "0x60806040523480156200001157600080fd5b50604051620011f9380380620011f98339818101604052810190620000379190620000df565b82156200005a576001600060146101000a81548160ff0219169083151502179055505b81600181905550336000806101000a81548173ffffffffffffffffffffffffffffffffffffffff021916908373ffffffffffffffffffffffffffffffffffffffff160217905550806002819055505050506200017f565b600081519050620000c2816200014b565b92915050565b600081519050620000d98162000165565b92915050565b600080600060608486031215620000f557600080fd5b60006200010586828701620000b1565b93505060206200011886828701620000c8565b92505060406200012b86828701620000c8565b9150509250925092565b60008115159050919050565b6000819050919050565b620001568162000135565b81146200016257600080fd5b50565b620001708162000141565b81146200017c57600080fd5b50565b61106a806200018f6000396000f3fe60806040526004361061007b5760003560e01c80639ec41a2d1161004e5780639ec41a2d14610160578063a694fc3a1461018b578063af33bd2f146101a7578063d6de1b90146101e45761007b565b80631f378b8a146100805780634816547c146100bd5780635061f433146100fa57806356c7c1b314610123575b600080fd5b34801561008c57600080fd5b506100a760048036038101906100a29190610a4b565b610221565b6040516100b49190610bfc565b60405180910390f35b3480156100c957600080fd5b506100e460048036038101906100df9190610a22565b6104c1565b6040516100f19190610cd7565b60405180910390f35b34801561010657600080fd5b50610121600480360381019061011c9190610a74565b6104d9565b005b34801561012f57600080fd5b5061014a60048036038101906101459190610a22565b6105da565b6040516101579190610cd7565b60405180910390f35b34801561016c57600080fd5b506101756105f2565b6040516101829190610cd7565b60405180910390f35b6101a560048036038101906101a09190610a9d565b6105f8565b005b3480156101b357600080fd5b506101ce60048036038101906101c99190610a22565b6108e4565b6040516101db9190610bfc565b60405180910390f35b3480156101f057600080fd5b5061020b60048036038101906102069190610a22565b610904565b6040516102189190610cd7565b60405180910390f35b600080600360008473ffffffffffffffffffffffffffffffffffffffff1673ffffffffffffffffffffffffffffffffffffffff168152602001908152602001600020549050600460008473ffffffffffffffffffffffffffffffffffffffff1673ffffffffffffffffffffffffffffffffffffffff16815260200190815260200160002054600560008573ffffffffffffffffffffffffffffffffffffffff1673ffffffffffffffffffffffffffffffffffffffff168152602001908152602001600020546102f09190610d03565b431015610332576040517f08c379a000000000000000000000000000000000000000000000000000000000815260040161032990610c57565b60405180910390fd5b6000811415610376576040517f08c379a000000000000000000000000000000000000000000000000000000000815260040161036d90610c37565b60405180910390fd5b61037f8361091c565b156103dd576001600760008573ffffffffffffffffffffffffffffffffffffffff1673ffffffffffffffffffffffffffffffffffffffff16815260200190815260200160002060006101000a81548160ff0219169083151502179055505b6000600360008573ffffffffffffffffffffffffffffffffffffffff1673ffffffffffffffffffffffffffffffffffffffff168152602001908152602001600020819055508273ffffffffffffffffffffffffffffffffffffffff166108fc829081150290604051600060405180830381858888f19350505050158015610468573d6000803e3d6000fd5b508273ffffffffffffffffffffffffffffffffffffffff167f398743989642832fe0c4f55392e0f38a40ad7b2a603015ab36586442ddf9e4f1826040516104af9190610cd7565b60405180910390a26001915050919050565b60056020528060005260406000206000915090505481565b60008054906101000a900473ffffffffffffffffffffffffffffffffffffffff1673ffffffffffffffffffffffffffffffffffffffff163373ffffffffffffffffffffffffffffffffffffffff1614610567576040517f08c379a000000000000000000000000000000000000000000000000000000000815260040161055e90610c17565b60405180910390fd5b600060149054906101000a900460ff16151581151514156105bd576040517f08c379a00000000000000000000000000000000000000000000000000000000081526004016105b490610cb7565b60405180910390fd5b80600060146101000a81548160ff02191690831515021790555050565b60066020528060005260406000206000915090505481565b60015481565b60003490506000339050600154821015610647576040517f08c379a000000000000000000000000000000000000000000000000000000000815260040161063e90610c97565b60405180910390fd5b600060149054906101000a900460ff166106de576000600360008373ffffffffffffffffffffffffffffffffffffffff1673ffffffffffffffffffffffffffffffffffffffff16815260200190815260200160002054146106dd576040517f08c379a00000000000000000000000000000000000000000000000000000000081526004016106d490610c77565b60405180910390fd5b5b81600360008373ffffffffffffffffffffffffffffffffffffffff1673ffffffffffffffffffffffffffffffffffffffff168152602001908152602001600020600082825461072d9190610d03565b9250508190555082600460008373ffffffffffffffffffffffffffffffffffffffff1673ffffffffffffffffffffffffffffffffffffffff16815260200190815260200160002060008282546107839190610d03565b925050819055506000600660008373ffffffffffffffffffffffffffffffffffffffff1673ffffffffffffffffffffffffffffffffffffffff1681526020019081526020016000205414156108175742600660008373ffffffffffffffffffffffffffffffffffffffff1673ffffffffffffffffffffffffffffffffffffffff168152602001908152602001600020819055505b6000600560008373ffffffffffffffffffffffffffffffffffffffff1673ffffffffffffffffffffffffffffffffffffffff1681526020019081526020016000205414156108a45743600560008373ffffffffffffffffffffffffffffffffffffffff1673ffffffffffffffffffffffffffffffffffffffff168152602001908152602001600020819055505b7fc11b70f8c71fbaa77367108f7a723f9baf6e91407052d0daf91db7dc5ffaf1de8183856040516108d793929190610bc5565b60405180910390a1505050565b60076020528060005260406000206000915054906101000a900460ff1681565b60046020528060005260406000206000915090505481565b6000600660008373ffffffffffffffffffffffffffffffffffffffff1673ffffffffffffffffffffffffffffffffffffffff16815260200190815260200160002054426109699190610db3565b600360008473ffffffffffffffffffffffffffffffffffffffff1673ffffffffffffffffffffffffffffffffffffffff168152602001908152602001600020546109b39190610d59565b600254116109c457600190506109c9565b600090505b919050565b6000813590506109dd81610fd8565b92915050565b6000813590506109f281610fef565b92915050565b600081359050610a0781611006565b92915050565b600081359050610a1c8161101d565b92915050565b600060208284031215610a3457600080fd5b6000610a42848285016109ce565b91505092915050565b600060208284031215610a5d57600080fd5b6000610a6b848285016109e3565b91505092915050565b600060208284031215610a8657600080fd5b6000610a94848285016109f8565b91505092915050565b600060208284031215610aaf57600080fd5b6000610abd84828501610a0d565b91505092915050565b610acf81610de7565b82525050565b610ade81610e0b565b82525050565b6000610af1602a83610cf2565b9150610afc82610e70565b604082019050919050565b6000610b14602183610cf2565b9150610b1f82610ebf565b604082019050919050565b6000610b37601883610cf2565b9150610b4282610f0e565b602082019050919050565b6000610b5a601f83610cf2565b9150610b6582610f37565b602082019050919050565b6000610b7d600d83610cf2565b9150610b8882610f60565b602082019050919050565b6000610ba0603083610cf2565b9150610bab82610f89565b604082019050919050565b610bbf81610e37565b82525050565b6000606082019050610bda6000830186610ac6565b610be76020830185610bb6565b610bf46040830184610bb6565b949350505050565b6000602082019050610c116000830184610ad5565b92915050565b60006020820190508181036000830152610c3081610ae4565b9050919050565b60006020820190508181036000830152610c5081610b07565b9050919050565b60006020820190508181036000830152610c7081610b2a565b9050919050565b60006020820190508181036000830152610c9081610b4d565b9050919050565b60006020820190508181036000830152610cb081610b70565b9050919050565b60006020820190508181036000830152610cd081610b93565b9050919050565b6000602082019050610cec6000830184610bb6565b92915050565b600082825260208201905092915050565b6000610d0e82610e37565b9150610d1983610e37565b9250827fffffffffffffffffffffffffffffffffffffffffffffffffffffffffffffffff03821115610d4e57610d4d610e41565b5b828201905092915050565b6000610d6482610e37565b9150610d6f83610e37565b9250817fffffffffffffffffffffffffffffffffffffffffffffffffffffffffffffffff0483118215151615610da857610da7610e41565b5b828202905092915050565b6000610dbe82610e37565b9150610dc983610e37565b925082821015610ddc57610ddb610e41565b5b828203905092915050565b6000610df282610e17565b9050919050565b6000610e0482610e17565b9050919050565b60008115159050919050565b600073ffffffffffffffffffffffffffffffffffffffff82169050919050565b6000819050919050565b7f4e487b7100000000000000000000000000000000000000000000000000000000600052601160045260246000fd5b7f596f7520617265206e6f7420416c6c6f77656420746f20706572666f726d207460008201527f68697320616374696f6e00000000000000000000000000000000000000000000602082015250565b7f596f752068617665206e6f20286d6f726529206574686572206174205374616b60008201527f6500000000000000000000000000000000000000000000000000000000000000602082015250565b7f46756e647320617265207374696c6c206174207374616b650000000000000000600082015250565b7f54686973206164647265737320697320616c726561647920656e676167656400600082015250565b7f5374616b6520746f6f206c6f7700000000000000000000000000000000000000600082015250565b7f546865207374616b696e67206f7074696f6e2068617320616c7265616479207460008201527f686520646573697265642076616c756500000000000000000000000000000000602082015250565b610fe181610de7565b8114610fec57600080fd5b50565b610ff881610df9565b811461100357600080fd5b50565b61100f81610e0b565b811461101a57600080fd5b50565b61102681610e37565b811461103157600080fd5b5056fea2646970667358221220239258e6235e74872f73dc0b5cc969c588e8af44f011eca5bd0320745836140764736f6c63430008010033",
  "immutableReferences": {},
  "source": "//SPDX-License-Identifier: UNLICENSED\npragma solidity ^0.8.1;\n\ncontract LockContract {\n\n    address contractAdmin;\n    bool private multiStaking;\n    uint256 public minimalStake;\n    uint256 superStakerFreshold;\n\n    //List of all users stakes\n    mapping(address => uint256) stakes;\n    //Number of blocks for each user's stake\n    mapping(address => uint256) public nbBlocks;\n    mapping(address => uint256) public recordingBlocks;\n    mapping(address => uint256) public lockTimes;\n    mapping(address => bool) public isSuperStaker;\n\n    modifier onlyAdmin(){\n        require(msg.sender == contractAdmin, \"You are not Allowed to perform this action\");\n        _;\n    }\n\n    event StakingRelease(address indexed to, uint256 amount);\n    event StakingLocked(address staker, uint amount, uint256 numBlocks);\n\n    constructor(bool _setMultiStake, uint256 _minimalStake, uint256 _superStakerFreshold){\n        if (_setMultiStake){\n            multiStaking = true;\n        }\n        minimalStake = _minimalStake;\n        contractAdmin = msg.sender;\n        superStakerFreshold = _superStakerFreshold;\n    }\n\n    function stake(uint256 _nbBlocks) payable external {\n        uint256 amount = msg.value;\n        address currentStaker = msg.sender;\n        require(amount >= minimalStake, \"Stake too low\");\n        if (!multiStaking){\n            require(stakes[currentStaker] == 0, \"This address is already engaged\");\n        }\n        stakes[currentStaker] += amount;\n        nbBlocks[currentStaker] += _nbBlocks;\n        if (lockTimes[currentStaker] == 0){\n            //Only record the first (oldest) staking time\n            lockTimes[currentStaker]  = block.timestamp;\n        }\n        if (recordingBlocks[currentStaker] == 0){\n            //Only record the first (oldest) staking time\n            recordingBlocks[currentStaker]  = block.number;\n        }\n        \n        emit StakingLocked(currentStaker, amount, _nbBlocks);\n    }\n\n    function setMultiStaking(bool _multiStakeOption) onlyAdmin external {\n        require( _multiStakeOption != multiStaking, \"The staking option has already the desired value\");\n        multiStaking = _multiStakeOption;\n    }\n\n    function refundEther(address payable _staker) external returns(bool _isSuccess){\n        uint256 withdrawAmount = stakes[_staker];\n        require(block.number >= recordingBlocks[_staker] + nbBlocks[_staker], \"Funds are still at stake\");\n        require(withdrawAmount != 0, \"You have no (more) ether at Stake\");\n        if (canReceiveToken(_staker)){\n            isSuperStaker[_staker] = true;\n        }\n        stakes[_staker] = 0;\n        _staker.transfer(withdrawAmount);\n        emit StakingRelease(_staker, withdrawAmount);\n        _isSuccess = true;\n    }\n\n    function canReceiveToken(address _claimer) internal view returns(bool){\n        if (superStakerFreshold <= stakes[_claimer] * (block.timestamp - lockTimes[_claimer])){\n            return true;\n        }\n        return false;\n    }\n\n    // function receiveReward(address payable _stakerAddress) external {\n    //     require(isSuperStaker[_stakerAddress], \"Only superStaker can receive the Reward\");\n    //     token.safetransfer(_stakerAddress, 1);\n    // }\n}",
  "sourcePath": "/home/th0t-nz1ng/Coding/blockchain/Atka/contracts/LockContract.sol",
  "compiler": {
    "name": "solc",
    "version": "0.8.1+commit.df193b15.Emscripten.clang"
  },
  "schemaVersion": "3.2.4",
  "updatedAt": "2021-04-14T16:19:56.363Z",
  "networkType": "ethereum",
  "devdoc": {
    "kind": "dev",
    "methods": {},
    "version": 1
  },
  "userdoc": {
    "kind": "user",
    "methods": {},
    "version": 1
  }
}